:020000040800F2
:1000000090070020B50100083D1A0008351A0008C5
:10001000391A000871020008511A00080000000097
:10002000000000000000000000000000451A000869
:100030008102000800000000411A0008491A000867
:10004000CF010008CF010008CF010008CF01000850
:10005000CF010008CF010008CF010008CF01000840
:10006000CF010008CF010008CF0100087502000889
:10007000CF010008CF010008CF010008CF01000820
:10008000CF010008CF010008CF010008CF01000810
:10009000CF010008CF010008CF010008CF01000800
:1000A000CF010008CF010008CF010008CF010008F0
:1000B000CF010008CF010008CF010008CF010008E0
:1000C000CF010008CF010008CF010008CF010008D0
:1000D000CF010008CF010008CF010008CF010008C0
:1000E000CF010008CF010008CF01000800F002F89E
:1000F00000F050F814A696E8000CB244B344DA4578
:1001000001D100F047F8BAE80F000FA696E83000DA
:10011000A5EB040504EB0607AAEB0704A7F101070A
:100120004FEA15154FEA3414A4F10104AC4201D38F
:1001300000F030F813F0010F18BFFB1A43F0010371
:1001400000F001F8DBE71847681C0000881C00007D
:10015000103A24BF78C878C1FAD8520724BF30C8F3
:1001600030C144BF04680C60704700007047000055
:100170000023002400250026103A28BF78C1FBD8B0
:10018000520728BF30C148BF0B6070471FB51FBD65
:1001900010B510BD00F031F81146FFF7F7FF01F080
:1001A00059FC00F04FF803B4FFF7F2FF03BC00F076
:1001B00057F800000948804709480047FEE7FEE776
:1001C000FEE7FEE7FEE7FEE7FEE7FEE7FEE7FEE707
:1001D00004480549054A064B704700004D1A0008BF
:1001E000ED000008900100209007002090030020FF
:1001F00090030020704770477047754600F02CF858
:10020000AE4605006946534620F00700854618B003
:1002100020B5FFF7DDFFBDE820404FF000064FF0AE
:1002200000074FF000084FF0000BAC46ACE8C009E7
:10023000ACE8C009ACE8C009ACE8C00921F007018E
:100240008D46704710B50446AFF300802046BDE8E8
:100250001040FFF7A8BF00000048704710000020C2
:1002600001491820ABBEFEE72600020070470000DF
:10027000FEE7000040F2A800C2F2000000F0A8B9BA
:1002800070470000EFF3108072B600BFFEE7000079
:1002900070B581B00022009290F82420012A03D189
:1002A0000221084601B070BD4A680123062A02EB0C
:1002B000820E80F8243007D8D0F800C06FF0040315
:1002C0000CF134060CE000BFD0F800C00C2A87BF48
:1002D0000CF12C066FF040030CF130066FF0220396
:1002E0000EEB03021F23346803FA02F50B6824EABD
:1002F000050503FA02F22A433260092B03EB43029D
:100300001AD9DCF80C601E3A072589689540AE437F
:10031000914023F001023143102ACCF80C1015D182
:1003200042F20041C4F201018C4517D0816A41F0CC
:100330002001816201210AE0DCF81030072689687B
:100340009640B34391401943CCF81010002100228D
:1003500080F82420084601B070BD00BF89680902FA
:10036000F4D4DCF80810102B41F40001CCF808108C
:10037000ECD140F20801C2F2000109684DF6836237
:10038000C4F21B32A1FB0212910C01EB8101490066
:10039000009100990029D9D0009901390091009964
:1003A0000029D3D000990139009100990029CDD0BE
:1003B00000990139009100990029C7D000990139AD
:1003C0000091009900294FF00001E5D1BFE700003E
:1003D000002804BF01207047B0B50446806A28B1E8
:1003E00021688868C0070CD115E000BF0020E062DA
:1003F00084F82400204600F097F821688868C00738
:1004000009D0886820F00100886000F001FB2168B5
:100410008A68D20726D1A06AC0063AD4A06A41F2FF
:10042000021290430230A062E069D4E9013240EA4E
:10043000030C531EB3FA83F35D091346B2F5807FB4
:1004400018BF2B02207D257B01284CEA45002CD1CA
:1004500035B3A56A45F02005A562E56A45F00105BA
:10046000E56222E0054602E08868C007D3D000F0CC
:10047000CFFA401B21680328F6D38868C007F3D061
:10048000A06A40F01000A062E06A40F00100E06263
:10049000A06AA06A40F01000A0620120B0BD00BFB9
:1004A000A56903EB4533A3F5C0534D68B2F5807FD2
:1004B00025F4694543EA05034B608B684FF2FD75EF
:1004C000CFF6E17503EA050343EA00038B6001D030
:1004D000012A07D122690023CFF6F07303EB025201
:1004E00001E000BF0022CB6A23F470031A43CA6202
:1004F000896840F6FE62CFF61F721140814207D133
:100500000020E062A16A012262F30101A162B0BD94
:10051000A06A40F0100020F00200A062E06A40F003
:100520000100E0620120B0BD70B586B0044640F61F
:100530000000C4F20100216800F5E052002691425B
:100540000596CDE90366029602D006B070BD00BFE5
:1005500041F21801C4F202010A6842F400720A6012
:100560000A6802F400720192019A0A6842F00402D9
:100570000A60096801F00401019101990F210291BB
:100580000321039102A900F035F940F2A8050820E3
:10059000C2F20005C4F202004FF48072C5E9000601
:1005A00005F1100080214FF480634FF0200C80E8AB
:1005B0000C102846C5E90261EE6100F0D9F8002868
:1005C00018BFFFF75FFE25626C6206B070BD0000C9
:1005D00010B5D0E90FCE0168DCF800300A6823FAC4
:1005E0000EF35C072AD512F0040427D00A6892069D
:1005F00003D40A6822F004020A602F22C4F2020225
:10060000914240F20402C4F202025BDD3023C4F2E4
:100610000203994272D04423C4F20203994273D078
:100620005823C4F20203994240F07A804FF48023A9
:100630001360C16A002940F098806FE09C0727D5BD
:1006400012F0020424D00A68920606D40A6822F046
:100650000A020A60012280F821202F22C4F202023D
:10066000914240F20402C4F202023BDD3023C4F2A4
:100670000203994260D04423C4F2020399425FD03E
:100680005823C4F20203994260D14FF4003365E06D
:100690001B0743D512F0080208BF10BD0A6822F0FC
:1006A0000E020A60012101FA0EF2CCF804208163E7
:1006B00080F82110016B0022002980F8202054D1FD
:1006C0002CE000BF0823C4F20203994222D01C236D
:1006D000C4F20203994223D140231360C16A002966
:1006E00043D11BE00823C4F2020399422CD01C23FF
:1006F000C4F20203994229D120232FE04FF48063F2
:100700001360C16A89BB09E04FF480431360C16A7A
:1007100059BB03E004231360C16A31BB10BD00BFA5
:1007200002F168044FF08063A14208BF4FF48003D8
:100730001360C16AC9B9F1E74FF400730EE000BF5E
:100740004FF400530AE000BF022307E002F16804FF
:100750004FF00073A14208BF4FF400131360816A89
:100760000022002980F82020D8D0BDE8104008479A
:10077000014600284FF0010008BF70472DE9F04303
:10078000D1F800C04FF6F873CBF6FD734CF6CD42AE
:100790006344CCF6CC42A3FB02236FF0030202EACF
:1007A00093020023C4F2020301F10C08C1E90F32E5
:1007B0000222D1E9019E98E8F00181F82120DCF8BD
:1007C000002043F6F0739A4342EA090242EA0E021D
:1007D00022432A4332433A4342EA0802CCF800203B
:1007E00000228A6381F8210081F820200020BDE8E2
:1007F000F04370472DE9F04F82B00E68002E00F0F4
:10080000FD8041F20042C4F20102042340F2004E96
:10081000904208BF03234FF6FF7CC4F2010E009301
:1008200000240123C1F2100C4FF0000A4FF0000920
:100830004BE000BF41F20002C4F20102009F90426F
:1008400008BF022704F00C030F229A402BEA020291
:1008500007FA03F34FEA9A051A4346F825204E6833
:1008600040F20C45F202DEF8082054BF22EA0802EA
:1008700042EA0802C4F20105CEF808202A68B30251
:1008800054BF22EA080242EA08022A60B303DEF8F3
:10089000042054BF22EA080242EA0802F303CEF819
:1008A0000420DEF800204FF0010354BF22EA0802C2
:1008B00042EA0802CEF800200E680AF1010A36FA70
:1008C0000AF204F1040400F0998003FA0AFB16EA24
:1008D0000B08F1D04E68664512DC122E56D8DFE8C0
:1008E00006F0350B4D4955555555555555555555EA
:1008F00055555545510000BFD1F80C9046E000BF5A
:100900004FF6FF72C1F2210296420FDC0022C1F2C3
:10091000110296421AD00022C1F21202964215D05C
:100920000022C1F22102964210D02FE00022C1F233
:10093000220296420AD00022C1F23102964205D02C
:100940000022C1F23202964220D100BF8A684AB129
:10095000012A14BFC0F814B0C0F810B04FF0080955
:1009600014E000BF4FF0040910E000BFCA6802F1B4
:1009700004090BE04FF0000908E000BFCA6802F16B
:10098000080903E0CA6802F10C0900BF02462646C6
:10099000B8F5807F24BF0432203E17680F25B5408C
:1009A00027EA050509FA06F635431560CA79D20625
:1009B0007FF582AF41F21803C4F202031A68AEF564
:1009C0007E7642F001021A601A6802F0010201927A
:1009D000019A2AF0030256F802B040F60002C4F26F
:1009E0000102904208D040F60042C4F20102904257
:1009F0007FF420AF012725E7002723E702B0BDE8F9
:100A0000F08F0000002A08BF090401617047000050
:100A100040F28C10C2F200000068704740F2000003
:100A200040F28C11C2F20000C2F2000100780A68A4
:100A3000104408607047000080B542F20000C4F224
:100A40000200016841F010010160032000F08CF801
:100A50000F2000F005F800F027F8002080BD00000E
:100A600070B540F20006C2F2000640F2080132788A
:100A7000C2F200014FF47A730968B3FBF2F2044644
:100A8000B1FBF2F1084600F071FC0F2C4FF00105AC
:100A900008D838B94FF0FF3021460022002500F079
:100AA00037F87460284670BD82B041F21800C4F275
:100AB00002000168022241F001010160016801F0B9
:100AC000010101910199416841F080514160406804
:100AD00000F08050009000980420C4F201000168EA
:100AE00062F31A61016002B070470000002848BF3D
:100AF000704700F01F01012202FA01F11C2202EAF4
:100B0000D0004EF20012CEF2000281507047000079
:100B100010B54EF60C5CCEF2000CDCF80030C3F3DE
:100B2000022E8EF00704042C28BF0424BEF1030318
:100B30004FF0FF3E0EFA04F438BF0023A143994062
:100B40000EFA03F39A43114300F00F0200F16043E1
:100B50000901043A03F564436244002848BF02F1E6
:100B60000C03197010BD00004EF60C51CEF20001BE
:100B70000A684FF6FF031A4060F30A2242F08060D1
:100B800040F0FD70086070472DE9F04182B00446E6
:100B9000007841F21C06C007C4F202064AD0306851
:100BA0005FEAC00808D4306840F080503060306898
:100BB00000F080500190019847F20007C4F200074E
:100BC0003868C00512D4386840F480703860FFF788
:100BD0001FFF05463868C00508D4FFF719FF401B02
:100BE0006428F7D9032002B0BDE8F081706810F4E2
:100BF000407012D0616801F4407188420DD0706875
:100C000040F24042C4F24222012320F440711360BA
:100C10000023C0071360716026D17068616820F4FA
:100C200040700843B8F1000F706003D4306820F0C2
:100C3000805030602068810707D556F8181CA268DC
:100C400021F44041114346F8181CC00607D556F858
:100C5000180CE16820F48000084346F8180C0020C6
:100C600002B0BDE8F08100BFFFF7D2FE054641F2B9
:100C7000883700BF70688007CFD4FFF7C9FE401BDC
:100C8000B8424FF00300F5D9EAE70000002804BF9E
:100C9000012070472DE9F04381B042F20008C4F210
:100CA00002080446D8F800000D4600F00700814213
:100CB0000CD9D8F8000020F007002843C8F800003D
:100CC000D8F8000000F00700A8426CD1206841F27B
:100CD00004098107C4F2020917D5410705D5D9F8DF
:100CE000001041F4E061C9F80010010705D5D9F8FA
:100CF000001041F46051C9F80010D9F80010A26842
:100D000021F0F0011143C9F80010C00742D1D8F812
:100D1000000000F0070085420CD2D8F8000020F057
:100D200007002843C8F80000D8F8000000F00700CA
:100D3000A84238D12068410707D5D9F80010E268E9
:100D400021F4E0611143C9F80010000708D5D9F873
:100D50000000216920F4605040EAC100C9F8000099
:100D6000D9F8002002F00C00082841F20020C0F25F
:100D70007A004DD141F6A053C2F38341C0F600037F
:100D8000595CD20338D440F60010C0F23D0048430D
:100D90003EE000BF606859F8041C022808D0012812
:100DA00026D1890306D4012001B0BDE8F08300BF3D
:100DB0008901F8D5D9F8001021F003010843C9F8DA
:100DC0000000FFF725FE064641F28837D9F80000FB
:100DD000616800F00C00B0EB810F98D0FFF718FEAF
:100DE000801BB842F2D9032001B0BDE8F08300BFF8
:100DF0008907D8D5DEE700BFD9F8002041F69E5319
:100E0000C2F34042C0F600039A5C4843B0FBF2F0E4
:100E1000D9F8001041F68E52C1F30311C0F600025A
:100E2000515C40F2080220FA01F140F20400C2F2E3
:100E300000000068C2F200021160FFF711FE0020FE
:100E400001B0BDE8F0830000002804BF0120704716
:100E50002DE9F04182B00446007841F20006C00757
:100E6000C4F202060CD0706800F00C00042840F0B8
:100E700081803068800303D56068002800F04681D7
:100E8000207880071BD5706810F00C0F09D07068AF
:100E900000F00C00082840F087807068C00300F163
:100EA00083803068800703D52069012840F02E81B7
:100EB0003068616920F0F80040EAC10030602078B5
:100EC000000713D4207840072CD4E569002D00F0EA
:100ED0001881706800F00C00082840F0A780012DF0
:100EE00040F00481012002B0BDE8F081A069002833
:100EF00000F084800020C4F242200121C0F8801458
:100F0000FFF786FD054600BF706A800700F1B280DA
:100F1000FFF77EFD401B0228F6D9032002B0BDE892
:100F2000F08100BFF0695FEAC00808D4F06940F0C2
:100F30008050F061F06900F080500090009847F216
:100F40000007C4F200073868C00549D4386840F487
:100F500080703860FFF75CFD054600BF3868C0054B
:100F60003ED4FFF755FD401B6428F7D9032002B09B
:100F7000BDE8F081706800F00C00082803D17068AB
:100F8000C0033FF576AF61683068002900F00C813E
:100F9000B1F5A02F00F00081B1F5803F40F01A813B
:100FA00040F480301CE100BF2069002840F20000BE
:100FB000C4F2422000F0888001210160FFF728FD83
:100FC000054600BF306880073FF572AFFFF720FD90
:100FD000401B0228F6D9032002B0BDE8F08100BF13
:100FE000E168306A002900F09D80052900F09280B8
:100FF000012940F0AF8040F00100B1E00020C4F2D0
:1010000042200021C0F88014FFF702FD054600BF12
:10101000706A80077FF556AFFFF7FAFC401B022885
:10102000F6D9032002B0BDE8F08100BF0027C4F26A
:10103000422700203866FFF7EBFC022D05460DD154
:101040003068800140F1DE80FFF7E2FC401B02289F
:101050004FF00300F4D902B0BDE8F08130688001A0
:101060004FD5FFF7D5FC401B02284FF00300F5D900
:10107000F1E700BF40F20800C2F20000006844F649
:10108000D351C1F26201A0FB0101480A019000BFE7
:1010900000BF0198411E002801913FF413AF00BF2B
:1010A0000198411E002801913FF40CAF00BF019848
:1010B000411E002801913FF405AF00BF0198411E79
:1010C00000280191E4D1FDE600210160FFF7A0FCBA
:1010D000054600BF306880077FF5F1AEFFF798FC4A
:1010E000401B02284FF00300F4D9B4E77068216A6E
:1010F00000F480328A4209D1616A00F4701088429B
:1011000004D1002002B0BDE8F08100BF012002B090
:10111000BDE8F08140F004003062306A40F0010028
:101120001EE000BF20F001003062306A20F00400B1
:101130003062FFF76DFC054641F28837306A800760
:1011400020D5FFF765FC401BB8424FF00300F5D9EE
:1011500081E700BF20F001003062306A20F0040017
:101160003062FFF755FC054641F28837306A800748
:1011700008D4FFF74DFC401BB842F7D9032002B05A
:10118000BDE8F081B8F1000F3FF59FAEF06920F0A7
:101190008050F06199E600BF40F4802030603068F4
:1011A00040F480301CE000BF20F4803030603068B4
:1011B00020F480203060FFF72BFC05463068800368
:1011C0007FF55EAEFFF724FC401B64284FF0030060
:1011D000F4D940E720F480303060306820F480207B
:1011E0003060FFF715FC0546306880033FF548AED8
:1011F000FFF70EFC401B6428F6D9032002B0BDE8BF
:10120000F08100BF206AB0F5803F05D17168A26807
:1012100021F40031114371607168626A21F4741124
:1012200011430843706001203866FFF7F1FB044664
:10123000306880013FF565AFFFF7EAFB001B02282D
:101240004FF00300F4D906E770B528B1416A29B11F
:1012500000210161142106E0012070BD4168B1F553
:10126000827F02D01C21002242500026866290F824
:10127000511029B980F85060054600F039F8284629
:10128000022180F8511090E82E0002F482720C685E
:1012900003F4044324F040040C601A4405F4006392
:1012A00005691A4405F0020345691A4405F0010373
:1012B0008569C4691A4405F400731A4404F03803BC
:1012C000046A1A4404F08003846A1A4304F4005345
:1012D0001A430A60042202EA15424A60CA6922F4EB
:1012E0000062CA610121466580F85110304670BD28
:1012F00070B586B040F60004C4F20104006804F53D
:101300002051002688420596CDE90366029601D059
:1013100006B070BD41F21800C4F20200016802ADCF
:1013200041F480510160016801F4805101910199FB
:10133000016841F0040101600068294600F00400E2
:1013400001900198A02002900220039003200590B4
:101350002046FFF74FFA4020CDE9020620462946F5
:101360000496FFF747FA06B070BD0000411E00204A
:10137000B0EB116F1CBF012070474EF21002CEF28D
:10138000000251604EF62351CEF20001F0230B70A3
:10139000072190601160704790F83C20012A04BF3B
:1013A00002207047B0B501F108053CCDD1E900CE6F
:1013B00023F47C5322F470521A432EF4F0431A4360
:1013C0002CF4E0431A4324F4C0431A432A43C96966
:1013D00022F48042036811435964002180F83C10D4
:1013E0000020B0BD90F83C20012A4FF0020236D018
:1013F00010B580F83D200268D2F804E0D2F808C0A9
:101400000C682EF07003234340F2FF74C4F2000412
:10141000A24253600ADCB2F1804F13D040F2004385
:10142000C4F200039A420DD011E000BF42F600431F
:10143000C4F201039A4205D040F60003C4F200034F
:101440009A4204D149682CF080031943916001212C
:10145000002280F83D1080F83C20BDE81040104686
:1014600070470000002804BF0120704710B590F8B5
:101470003D1031B9002180F83C10044600F070F8AE
:101480002046022180F83D10016840F2FF740B688D
:10149000C4F2000442F6004CA142C4F2010C15DC77
:1014A000B1F1804F1AD040F20042C4F200029142E2
:1014B00014D0A14218DCB1F1804F1DD040F200429F
:1014C000C4F20002914217D01AE000BF614505D076
:1014D00040F60002C4F200029142EAD1826823F091
:1014E00070031343A142E6DD614505D040F60002DA
:1014F000C4F20002914203D1026923F44073134302
:10150000846923F08002D0F804E0C3682243614577
:101510000A60CB62C1F828E002D14269CCF83020E1
:1015200001224A610B69DB0703D00B6923F0010339
:101530000B6180F8462080F83E2080F83F2080F83C
:10154000402080F8412080F8422080F8432080F835
:10155000442080F8452080F83D20002010BD000088
:10156000006842F60041C4F20101884218BF70478A
:1015700081B041F21800C4F20200016841F4006138
:101580000160006800F400600090009801B07047AE
:1015900090F83C20012A4FF002026CD080B580F810
:1015A0003D20D0F800C04FF67772DCF8083023EA0F
:1015B0000202CCF808200B684F2B29DC1F2B45DDDD
:1015C000202B46D0302B44D0402B40F0AF80D1F8B8
:1015D00004E0C968DCF82030DCF8202022F00102A9
:1015E000CCF82020DCF8182022F0F00242EA0111A9
:1015F00023F00A0242EA0E02CCF81810CCF82020A0
:10160000DCF8081041F0470121F0300128E000BF6C
:101610006F2B33DDB3F5005F74D0B3F5805F21D05D
:10162000702B40F08380D1E901E3C968DCF8082021
:1016300043EA0E0322F47F4243EA01211143CCF82E
:101640000810DCF8081041F0770109E00BB1102B0D
:101650006CD1DCF8081021F07001194341F007014A
:10166000CCF808100022012180F83D10002180F8FC
:101670003C10BDE880401046704700BF502B21D081
:10168000602B53D1D1F804E0C968DCF82030DCF8D5
:10169000202022F01002CCF82020DCF8182022F4C0
:1016A000704242EA013123F0A00242EA0E12CCF865
:1016B0001810CCF82020DCF8081041F0670121F068
:1016C0001001CDE7D1F804E0C968DCF82030DCF87F
:1016D000202022F00102CCF82020DCF8182022F093
:1016E000F00242EA011123F00A0242EA0E02CCF8AB
:1016F0001810CCF82020DCF8081041F0570121F038
:101700002001ADE7D1E901E3C968DCF8082043EA2C
:101710000E0322F47F4243EA01211143CCF8081062
:10172000DCF8081041F480419AE700BF01229AE7F3
:1017300090F83C30012B04BF022070474FEAB20200
:10174000032A00F2F1802DE9F043DFE802F003A55F
:101750003B7500BF036842F600461D6A1A6AC4F270
:10176000010622F001021A621A465C6852F818CF8C
:10177000B3428E68D1F800E025F0020545EA06057F
:101780000CD1CE68D1E9057824F4407425F00C051D
:1017900026F004063C43354344EA08042CF0730762
:1017A00047EA0E075C609F614F6809695F631D62CD
:1017B0009F6947F008079F619F6927F004079F61B1
:1017C000A6E000BF036842F600461D6A1A6AC4F22A
:1017D000010622F480721A621A46D3F804C052F845
:1017E0001CEFB3428E680C6825F4007545EA0625A7
:1017F0000FD1CE68D1E90598360240F2FF4725F4B3
:101800004065BE4335432CF4405748EA090647EA91
:10181000061C2EF073072743C3F804C0DF614F682E
:101820000969DF631D62DF6947F00807DF61DF696F
:1018300027F00407DF616BE0036842F60047D3F846
:1018400020C01A6AC4F2010722F480521A621A46B2
:101850005C6852F81C5FD1F800E08E68BB4204D18E
:101860004F6924F4804444EA87142CF4005747EA73
:10187000063725F4E64646EA0E265C60DE614E68D1
:1018800009691E641F62DF6947F40067DF61DF6971
:1018900027F48067DF613AE0036842F600461D6A7C
:1018A0001A6AC4F2010622F010021A621A46D3F82C
:1018B00004C052F8184FB3428E68D1F800E025F00A
:1018C000200545EA06150FD1CE68D1E905986FF0DD
:1018D000400725F0C00507EA061635432CF440679B
:1018E00048EA090647EA860C24F4E64444EA0E274F
:1018F000C3F804C09F614F6809699F631D629F69B7
:1019000047F400679F619F6927F480679F61090220
:101910001368194311600021BDE8F043002280F8EC
:101920003C200846704700BF0121002280F83C207F
:1019300008467047002804BF0120704710B590F892
:101940003D1031B9002180F83C10044600F070F8D9
:101950002046022180F83D10016840F2FF740B68B8
:10196000C4F2000442F6004CA142C4F2010C15DCA2
:10197000B1F1804F1AD040F20042C4F2000291420D
:1019800014D0A14218DCB1F1804F1DD040F20042CA
:10199000C4F20002914217D01AE000BF614505D0A1
:1019A00040F60002C4F200029142EAD1826823F0BC
:1019B00070031343A142E6DD614505D040F6000205
:1019C000C4F20002914203D1026923F4407313432D
:1019D000846923F08002D0F804E0C36822436145A3
:1019E0000A60CB62C1F828E002D14269CCF830200D
:1019F00001224A610B69DB0703D00B6923F0010365
:101A00000B6180F8462080F83E2080F83F2080F867
:101A1000402080F8412080F8422080F8432080F860
:101A2000442080F8452080F83D20002010BD0000B3
:101A300070470000FEE70000FEE70000FEE7000040
:101A40007047000070470000FEF7E8BF70470000D5
:101A5000FEE7000098B0FEF7EFFF00240120CDE97B
:101A60000644CDE904440590102006904FF4601020
:101A700002250A9001A8CDE902441794CDE9154446
:101A80000195CDE90854FFF7DFF928B1EFF3108095
:101A900072B600BFFEE700BF0F20CDE90B054FF483
:101AA0008060CDE90E040BA802210D94FFF7EEF83B
:101AB00020B1EFF3108072B6FEE700BF0220149051
:101AC0004FF40040169014A8FFF75EF820B1EFF332
:101AD000108072B6FEE700BF002541F21807CDE97D
:101AE0000355CDE90155C4F20207386840F60048B5
:101AF00040F0040038603868C4F2010800F00400C7
:101B00000B900B983868032140F008003860386863
:101B1000002200F008000B900B9840460324FEF7CB
:101B200071FF012601A940460194CDE902650494A4
:101B3000FEF760FE57F8040C002140F0010047F862
:101B4000040C57F8040C002200F0010001900198E9
:101B50000B20FEF7DDFF0B20FEF7C8FF40F27007F9
:101B6000C2F2000708F5C051384640F8081F4FF48C
:101B700080714FF46022C0E901510421067305759C
:101B8000C2610161FEF724FC20B1EFF3108072B650
:101B9000FEE700BFCDE90156052007F108050390D7
:101BA00001A92846FEF774FB20B1EFF3108072B64E
:101BB000FEE700BF01200190022601A928460296F7
:101BC000FEF766FB20B1EFF3108072B6FEE700BFB0
:101BD0000196032601A928460296FEF759FB28B173
:101BE000EFF3108072B600BFFEE700BF0420029042
:101BF00001A928460196FEF74BFB28B1EFF31080B0
:101C000072B600BFFEE700BF40F2EC0008F51051CD
:101C1000C2F200004FF4827200254FF400731027C7
:101C200080E826000A21C0E90355C0E90553C761D1
:101C3000C0E90855C0E90A51FFF706FB20B1EFF3F0
:101C4000108072B6FEE700BF40F2441008F5005164
:101C5000C2F200004FF6FF731795CDE91555CDE997
:101C60001255CDE90755CDE90555CDE90355CDE927
:101C700001553F2280E82600C0E90335C0E905553B
:101C8000FFF7F0FB20B1EFF3108072B6FEE700BF64
:101C90004FF48050149040F24410C2F2000014A996
:101CA000FFF776FC20B1EFF3108072B6FEE700BFBD
:101CB00040F24410C2F20000FFF73CFE20B1EFF307
:101CC000108072B6FEE700BF40F24410C2F200007E
:101CD00012A9FFF787FB18B1EFF3108072B6FEE789
:101CE00060200B900020CDE90C00CDE90E00CDE97D
:101CF000100040F24410C2F200000BA90022FFF7CE
:101D000017FD18B1EFF3108072B6FEE740F24410F1
:101D1000C2F200000BA90422FFF70AFD20B1EFF385
:101D2000108072B6FEE700BF40F24410C2F200001D
:101D30000BA90822FFF7FCFC20B1EFF3108072B66C
:101D4000FEE700BF40F24410C2F200000BA90C22D3
:101D5000FFF7EEFC20B1EFF3108072B6FEE700BF94
:101D600000200590CDE90300CDE901004FF40051BA
:101D7000089040F244100691C2F2000001A9FFF75A
:101D80000BFB18B1EFF3108072B6FEE7FEE7000020
:101D90000000000000000102030406070809010218
:101DA00002030405060708090A0B0C0D0E0F10109C
:101DB000D01D0008000000201000000050010008A5
:101DC000E01D0008100000208007000070010008DE
:101DD000010000001000000000127A000000000066
:04000005080000ED02
:00000001FF
